:100000000C9462000C948A000C948A000C948A0070
:100010000C948A000C948A000C948A000C948A0038
:100020000C948A000C948A000C948A000C948A0028
:100030000C948A000C948A000C948A000C948A0018
:100040000C94E2020C948A000C948A000C948A00AE
:100050000C948A000C948A000C948A000C948A00F8
:100060000C948A000C948A000000000023002600F3
:10007000290000000008000201000003040700003E
:1000800000000000000000000000250028002B00F8
:1000900000000000240027002A00040404040404D3
:1000A0000404020202020202030303030303010227
:1000B00004081020408001020408102001020408F6
:1000C0001020EE0311241FBECFEFD8E0DEBFCDBF5E
:1000D00011E0A0E0B1E0E8E2F8E002C005900D9286
:1000E000AC32B107D9F721E0ACE2B1E001C01D921A
:1000F000AD34B207E1F710E0C2E6D0E004C02197CA
:10010000FE010E940C04C136D107C9F70E942C03DE
:100110000C9412040C94000090E0FC01E255FF4F97
:10012000249186569F4FFC018491882399F090E09A
:10013000880F991FFC01E057FF4FA591B491FC0176
:10014000EA57FF4F859194918FB7F894EC91E22B89
:10015000EC938FBF0895AF92BF92CF92DF92EF9250
:10016000FF920F931F93CF93DF936C017B018B0161
:10017000040F151FEB015E01AE18BF08C017D107B1
:1001800059F06991D601ED91FC910190F081E02D3B
:10019000C6010995892B79F7C501DF91CF911F9190
:1001A0000F91FF90EF90DF90CF90BF90AF900895A8
:1001B000833081F028F4813099F08230A9F00895DD
:1001C0008730A9F08830C9F08430B1F48091800084
:1001D0008F7D03C0809180008F7780938000089589
:1001E00084B58F7784BD089584B58F7DFBCF8091D2
:1001F000B0008F778093B00008958091B0008F7D1C
:10020000F9CF1F93CF93DF93282F30E0F901EE58F9
:10021000FF4F8491F901E255FF4FD491F901E65661
:10022000FF4FC491CC23A9F0162F81110E94D80052
:10023000EC2FF0E0EE0FFF1FEA57FF4FA591B491AE
:100240008FB7F894EC91111108C0D095DE23DC93A0
:100250008FBFDF91CF911F910895DE2BF8CF3FB76D
:10026000F8948091310190913201A0913301B091C5
:10027000340126B5A89B05C02F3F19F00196A11D9A
:10028000B11D3FBFBA2FA92F982F8827BC01CD01E0
:10029000620F711D811D911D42E0660F771F881F3F
:1002A000991F4A95D1F708958F929F92AF92BF926E
:1002B000CF92DF92EF92FF920E942F014B015C01DF
:1002C00084EFC82EDD24D394E12CF12C0E942F0161
:1002D000681979098A099B09683E7340810591056F
:1002E000A8F321E0C21AD108E108F10888EE880ECF
:1002F00083E0981EA11CB11CC114D104E104F104D7
:1003000029F7FF90EF90DF90CF90BF90AF909F9034
:100310008F900895089590E080E00895FC01019089
:100320000020E9F73197AF01481B590BBC0185E369
:1003300091E00C94AB00CF93DF93EC0160E08E81F1
:100340000E94010161E08E810E94010160E08E81C6
:100350000E9401018BE891E00197F1F7DF91CF91C5
:100360000895CF92DF92EF92FF920F931F93CF9356
:10037000DF936C017C0187E0E80EF11CD0E0C0E067
:10038000062F10E0B8010C2E02C0759567950A94EF
:10039000E2F76170F70181917F010E9401012196CE
:1003A000C430D10579F7C601DF91CF911F910F912C
:1003B000FF90EF90DF90CF900C949B01CF92DF9253
:1003C000EF92FF920F931F93CF93DF93EC01F62EE2
:1003D000642F8C810E9401018D818F3F19F060E0B4
:1003E0000E9401010F2D10E08F8584FF25C06E0152
:1003F00087E0C80ED11CF12CE12CB8010E2C02C0F4
:10040000759567950A94E2F76170F60181916F0125
:100410000E940101FFEFEF1AFF0A88E0E816F104DD
:1004200061F7CE01DF91CF911F910F91FF90EF9077
:10043000DF90CF900C949B01B80184E0759567958F
:100440008A95E1F7CE010E94B1016F2DCE01DF91B7
:10045000CF911F910F91FF90EF90DF90CF900C9470
:10046000B10140E0682F85E391E00C94DE0181E06A
:100470000E9431028BE39FE10197F1F70895CF933A
:10048000DF93823029F49091440198609093440165
:10049000809348011092490180E480934A0180E1F1
:1004A00080934B0180E580934C01809139010E943B
:1004B0008C0080913A018F3F11F00E948C00809156
:1004C0003B010E948C00C5E3D1E09E0125533140E1
:1004D0008091440184FD0AC084E090E021962817B1
:1004E00039073CF48E810E948C00EFCF88E090E0C9
:1004F000F5CF8BE39DE00197F1F760E08091390142
:100500000E94010160E080913B010E940101809105
:100510003A018F3F19F060E00E940101809144018F
:1005200084FD34C063E085E391E00E94B101CBE437
:10053000D6E4CE010197F1F763E085E391E00E94F4
:10054000B1012197F1F763E085E391E00E94B101E9
:1005500083E592E00197F1F762E085E391E00E9484
:10056000B1018091440180620E94310284E0809355
:1005700045018CE00E9431020E94370282E08093A4
:10058000460186E0DF91CF910C94310280620E9497
:1005900031028BE496E40197F1F780914401806287
:1005A0000E94310283E592E00197F1F780914401C6
:1005B00080620E943102D5CF41E00E94DE0181E0DD
:1005C00090E008951F920F920FB60F9211242F936F
:1005D0003F938F939F93AF93BF9380912D01909101
:1005E0002E01A0912F01B091300130912C0123E018
:1005F000230F2D3758F50196A11DB11D20932C0115
:1006000080932D0190932E01A0932F01B093300180
:100610008091310190913201A0913301B091340168
:100620000196A11DB11D8093310190933201A093D9
:100630003301B0933401BF91AF919F918F913F915E
:100640002F910F900FBE0F901F90189526E8230F43
:100650000296A11DB11DD2CF789484B5826084BD6D
:1006600084B5816084BD85B5826085BD85B58160B6
:1006700085BD80916E00816080936E001092810034
:1006800080918100826080938100809181008160EF
:1006900080938100809180008160809380008091B0
:1006A000B10084608093B1008091B000816080933C
:1006B000B00080917A00846080937A0080917A0003
:1006C000826080937A0080917A00816080937A00C2
:1006D00080917A00806880937A001092C10082E055
:1006E0000E943F0287E00E948C00C3E7D0E00FEA3F
:1006F00010E09BE9E92E90E0F92E20E0C22E20E0E8
:10070000D22EFE018491F801A490F701B490BB2091
:1007100009F45DC081110E94D800EB2DF0E0EE0FCE
:10072000FF1FE859FF4FA591B4918C91A82291E049
:1007300080E009F490E0A92EB82EE1E08091480114
:100740008111E0E0E195F0E0EB5CFE4F8489806888
:100750000E9431028CE091E00E948E01AB28C1F42E
:10076000E0914801E230B0F5E150F0E0EB5CFE4F83
:10077000848980680E9431028BE191E00E948E01A1
:1007800060E087E00E9401010E9454010E9437024C
:10079000E0914801E23000F5E150F0E0EB5CFE4F03
:1007A000848980680E94310281E291E00E948E017A
:1007B00061E087E00E9401010E9454010E9437021B
:1007C000C114D10409F49DCF0E9400009ACFB12C2E
:1007D000A12CB3CFE1E0C9CFE1E0DFCFE5E3F1E069
:1007E0001382128284E091E0918380838DE0848380
:1007F0008FEF85838CE086838BE087838AE0808718
:1008000089E0818788E0828713861486158616869C
:10081000178681E00C943F02EE0FFF1F0590F491C4
:08082000E02D0994F894FFCFCC
:1008280000000000DC02AB008B018A0153656C619B
:100838006D617420446174616E670048616C6C6F0F
:0C08480000524946514920412046000062
:00000001FF
